:100000000C9463000C94F3010C9480000C94800019
:100010000C9480000C9480000C9480000C94800060
:100020000C9480000C9480000C9480000C94800050
:100030000C9480000C9480000C9480000C94800040
:100040000C9480000C9480000C9480000C94800030
:100050000C9480000C9480000C9480000C94800020
:100060000C9480000C9480000902120001010080B1
:100070003209040000000000000012011001FF001E
:100080000008C016DC050001010200011C03490044
:1000900044002000310032003300340035003600C7
:1000A00037003800390030001A0363007000650023
:1000B0002E006B0075002E00610063002E0074009E
:1000C00068000403090411241FBECFEFD8E0DEBF8F
:1000D000CDBF11E0A0E0B1E0E8E3F6E002C005909A
:1000E0000D92A230B107D9F721E0A2E0B1E001C042
:1000F0001D92A333B207E1F70E9407030C941A0381
:100100000C940000FC01818181110BC086B182FB3F
:10011000992790F981E089278093070187E091E092
:1001200025C0813069F496B1969598279170909387
:10013000060126E031E0309318012093170108955D
:10014000823059F486B183FB992790F981E08927A1
:100150008093050185E091E009C0833069F486B1A0
:10016000809581708093040184E091E09093180160
:100170008093170181E00895843071F40E94D500C6
:10018000909303018093020182E091E09093180123
:100190008093170182E0089580E0089587B1807E02
:1001A00087B988B18F6088B908958F708064809313
:1001B0007C0087EC80937A0080917A0086FDFCCFEA
:1001C000209178008091790090E0982F8827820F05
:1001D000911D0895CF93DF9380911901835087FD7E
:1001E0008AC0909115019D3209F083C0883009F0D2
:1001F00080C080911601CCE0D0E0C81BD109C35E5D
:10020000DE4F83EC809309018AE58093010110920F
:1002100008018881807621F0CE010E94820060C0B2
:100220008A81109212019981911106C010921301D6
:1002300022E131E082E050C0953019F480931A0138
:100240003DC09630A9F59B81913019F48AE790E082
:1002500004C0923041F488E690E0909318018093B6
:10026000170182E121C09330F1F4811108C082ECC2
:1002700090E0909318018093170184E015C08130BD
:1002800041F488EA90E090931801809317018AE185
:100290000BC0823041F48CE890E090931801809379
:1002A00017018CE101C080E090E49093080118C030
:1002B000983079F0993031F480931C0122E131E0DB
:1002C00080E00AC081E09A3009F080E022E131E06C
:1002D00003C02CE131E081E0309318012093170135
:1002E0009F81911104C09E81981708F4892F8093F3
:1002F0000001109219018091010184FF47C0809193
:1003000000018F3F09F442C0C82F893008F0C8E0CF
:100310008C1B809300019091090188E889278093C4
:100320000901CC2331F140911701509118018091BE
:10033000080186FF0AC0AAE0B1E0FA019C2F84916F
:100340008D9331969150D9F708C0DA01EAE0F1E0D7
:100350009C2F8D9181939150E1F72FEF2C0F30E07E
:100360002F5F3F4FCA01820F931F90931801809314
:1003700017016C2F8AE091E00E94EF01CC5FCC3036
:1003800019F08FEF80930001C093010184E199B1CE
:10039000947131F48150D9F710921A01109214011E
:1003A000DF91CF910895E9E6F0E08081826080835B
:1003B000E89A0895A82FB92F80E090E041E050EA34
:1003C000609530E009C02D9182279795879510F0B0
:1003D00084279527305EC8F36F5FA8F30895EADF9E
:1003E0008D939D930895CF93CFB7CF93DF93C3950C
:1003F0004C9BE9F74C9B0BC04C9B09C04C9B07C026
:100400004C9B05C04C9B03C04C9B01C089C06F93A3
:10041000C0911601DD27C35EDE4F2F9365E54C9B2F
:1004200003C02F916F91E6CF0F931F934F9320E05E
:1004300040E15F9309B1047104FB27F93F9350E059
:100440003BE039C0147140642F77012F5F5F1EC0FD
:10045000406819B114712F7752501FC0406409B120
:100460002F770471D1F15F5F00C023C0406219B1E2
:100470002F77147191F15F5F00C025C004711027C0
:10048000515012F45D5F0000115027952C3F19B1B7
:10049000C8F614710127015027952C3FC8F6422752
:1004A000499309B1047110274F73115027952C3FC0
:1004B000A8F64695469519B1147179F001270150B7
:1004C00027952C3F98F66B5A60F3315009B1B0F67E
:1004D00000C011E01CBB002717C03B503195C31B67
:1004E000D04011E01CBB0881033CF9F00B34E9F06B
:1004F000209114011981110F1213EDCF093651F11A
:100500000D3211F0013E39F700931B013F915F91CD
:100510004F911F910F912F916F91CCB3C0FD67CF79
:10052000DF91CF91CFBFCF91189520911B0122234E
:1005300069F310911901112339F534303AF13093F0
:10054000190120931501109116013BE0311B3093E6
:1005500016011CC0009119010130B4F40AE5309174
:10056000010134FD14C000930101C9E0D1E013C0C2
:10057000052710E000C000000BB91AC0052710E0E5
:10058000221F1DC010E021C04AE502C032ED432FFA
:10059000C4E1D0E032E01AB114615C9A0BB11AB92F
:1005A00054E120E865E320FF05270BB9279517954F
:1005B0001C3FF0F66695B8F7B1F720FF05270BB999
:1005C000279517951C3FD0F62795179517FF0527F8
:1005D00000001C3F0BB9B0F629913A9519F70B7E34
:1005E00010911A01110FC651D0400BB911F01093A0
:1005F000140111E01CBB00611AB11B7E402F4B7E21
:1006000054E05A95F1F70BB91AB94BB97FCF0E9454
:10061000CE000E94D301549A2FEF85EA9EE021502C
:1006200080409040E1F700C00000549878940E9408
:08063000EA00FDCFF894FFCFB2
:02063800FF5A67
:00000001FF
